:020000040800F2
:100000006806002439030008B10C0008F904000850
:10001000A90C0008E9040008310F000800000000E6
:10002000000000000000000000000000C10C0008FB
:10003000F104000800000000B90C0008C90C000819
:100040005303000853030008530300085303000838
:100050005303000853030008530300085303000828
:100060005303000853030008530300085303000818
:100070005303000853030008530300085303000808
:1000800053030008530300085303000853030008F8
:1000900053030008530300085303000853030008E8
:1000A00053030008530300085303000853030008D8
:1000B00053030008530300085303000853030008C8
:1000C00053030008530300085303000853030008B8
:1000D00053030008530300085303000853030008A8
:1000E00053030008530300080000000053030008F6
:1000F0005303000853030008530300085303000888
:100100005303000853030008530300085303000877
:100110005303000853030008530300085303000867
:100120005303000853030008530300085303000857
:100130005303000853030008530300085303000847
:1001400000000000000000000000000000000000AF
:100150005303000853030008530300085303000827
:100160005303000853030008530300085303000817
:100170005303000853030008530300085303000807
:1001800053030008530300085303000853030008F7
:1001900053030008530300085303000853030008E7
:1001A00053030008530300085303000853030008D7
:1001B00053030008530300085303000853030008C7
:1001C00053030008530300085303000853030008B7
:1001D00053030008530300085303000853030008A7
:1001E0005303000853030008530300085303000897
:1001F0005303000853030008530300085303000887
:100200005303000853030008530300085303000876
:100210005303000853030008530300085303000866
:1002200053030008530300085303000800000000B4
:1002300053030008530300080000000053030008A4
:100240005303000853030008530300085303000836
:100250005303000853030008530300085303000826
:100260005303000853030008530300085303000816
:100270005303000853030008530300080000000064
:100280005303000853030008530300080000000054
:10029000000000005303000800F002F800F03CF8F2
:1002A0000AA090E8000C82448344AAF10107DA45D1
:1002B00001D100F031F8AFF2090EBAE80F0013F0E7
:1002C000010F18BFFB1A43F001031847C40F0000C9
:1002D000E40F0000103A24BF78C878C1FAD852075A
:1002E00024BF30C830C144BF04680C6070470000B0
:1002F0000023002400250026103A28BF78C1FBD82F
:10030000520728BF30C148BF0B6070471FB500F0CF
:1003100041FF1FBD10B510BD00F0A9F81146FFF751
:10032000F5FF00F009FE00F0C7F803B4FFF7F2FF95
:1003300003BC00F0CFF80000094880470948004797
:10034000FEE7FEE7FEE7FEE7FEE7FEE7FEE7FEE785
:10035000FEE7FEE704480549054A064B70470000E2
:10036000610E000899020008680000246806002455
:10037000680200246802002453EA020C00F069803D
:100380002DE9F04B4FF00006002B1FBFB3FA83F5A9
:1003900003FA05F424FA05F65E4012BF1643B2FADA
:1003A00082F502FA05F4C5F120051EBF22FA05FC0C
:1003B00044EA0C04203556EA044C4FEA144418BFB2
:1003C000641C4FF000084FF00009904271EB030CE1
:1003D00039D3002919BFB1FA81F701FA07F6B0FA4B
:1003E00080F700FA07F6C7F120071EBF20FA07FCC6
:1003F00046EA0C062037B6FBF4FCA7EB0507103FD6
:1004000007F01F0BCBF120062CFA06F60CFA0BFBBB
:1004100044BFB3460026202FA4BF5E464FF0000B1A
:100420005BEA060C08BF4FF0010B19EB0B0948EB18
:100430000608ABFB027C06FB02CC0BFB03CCC01B0B
:1004400071EB0C01C1E70B46024641464846BDE848
:10045000F08B13B5084318BF4FF0FF300146AFF3E0
:100460000080BDE81C407047704770477047754674
:1004700000F02CF8AE4605006946534620F0070010
:10048000854618B020B5FFF765FFBDE820404FF066
:1004900000064FF000074FF000084FF0000BAC468D
:1004A000ACE8C009ACE8C009ACE8C009ACE8C009D8
:1004B00021F007018D46704710B50446AFF3008068
:1004C0002046BDE81040FFF730BF000000487047ED
:1004D0000800002401491820ABBEFEE726000200F8
:1004E0007047000000000000FEE700000000000070
:1004F0007047000000000000FEE700000000000060
:100500002DE9F0410B6893FAA3F2B2FA82F233FAC2
:1005100002F558D04FF0010C19E005FB05F74E69C4
:10052000D0F824E07F437E43C7EB07152EEA05078A
:10053000374347624F68E64305687B4305EA060791
:100540003B43036001320B6833FA02F73BD00CFAED
:1005500002F513EA050EF5D04D686C1E012C13D878
:100560000EFB0EF4D0F808808F6804EB44067C4341
:1005700028EA0606CF6834438460446807FB03F624
:1005800024EA0303334343600EFB0EF30E69C7688E
:10059000022D03FB06F603EB430427EA040747EAB0
:1005A0000605C560C6D15FEA1E25B6D103FB03F779
:1005B0004E69D0F820E07E43C7EB07152EEA050709
:1005C00037430762B6E70020BDE8F0810000000075
:1005D00044F6D3514EF21002C1F26201CEF2000293
:1005E000A0FB01014FF0FF3000EB911050600020A4
:1005F0009060052010607047F0B581B00446006837
:10060000C00738D10D464EF6F31105F108032068F6
:10061000CEF6FF7108400ECB0843696918430843C2
:100620002060606820F4405010436060A869A168B1
:1006300021F440710843A060072000F035F8E0B1D4
:100640006F68D7B1298812A20023002632F8112042
:100650000021FFF791FE0902002341EA10613A46AA
:10066000000210EB570041F10001FFF785FE6FF328
:100670001F50E06002E0012606E001262888E16ABA
:1006800021F00F010843E062304601B0F0BD00BF29
:10069000010002000400060008000A000C0010001F
:1006A000200040008000000110B584B044F20044F6
:1006B000C5F60204A06D00F0070005282AD8DFE87F
:1006C00000F003161D262C362069C0F3C200032853
:1006D0003FD8DFE800F00240454A206849F20001B7
:1006E000C0F2D031C0F3C10021FA00F041E020682F
:1006F00000010FD501A800F027F905E0206880006F
:1007000008D501A800F0F0F9029804B010BD2068E7
:10071000400713D4002004B010BD206840F600113B
:10072000C005C0F23D0101EAE07004B010BD206FC9
:100730004FF4004101EA803004B010BD206849F256
:100740000001C0F2D031C0F3C10021FA00F004B0C2
:1007500010BD00200DE040F60010C0F23D0008E0A2
:1007600041F20020C0F27A0003E001A800F01CF87A
:100770000198A16941F2AE12C0F60002A369C1F36B
:100780000321246A03F00F03C4F30214515CD35C09
:10079000125D01F01F01C84003F01F01C84002F0C4
:1007A0001F01C84004B010BD80B544F2004EC5F62C
:1007B000020EDEF8282002F00302022A0AD0012AE3
:1007C00010D022B9DEF80020520700F1AC804FF0C3
:1007D000000C10E0DEF8002041F200239203C0F28A
:1007E0007A0306E0DEF8002040F60013D205C0F2DE
:1007F0003D0303EAE27C00228260C0E90022DEF8C9
:100800002830DEF83020DEF82C10C907C3F30513BA
:1008100079D19FED4A0A002B00F084806FF35F22AC
:10082000DEF82C10C90302F1010220D501EE10CA36
:1008300002EE103A03EE102ADEF83010C1F3462122
:10084000B8EE411AB8EE422A0131B8EE433A81EED1
:10085000021A30EE032A21EE021A02EE101AB8EE46
:10086000422A81EE021ABCEEC11A80ED001ADEF8AF
:100870002C10890320D501EE10CA02EE103A03EEC7
:10088000102ADEF83010C1F30641B8EE411AB8EE76
:10089000422A0131B8EE433A81EE021A30EE032AC1
:1008A00021EE021A02EE101AB8EE422A81EE021A66
:1008B000BCEEC11A80ED011ADEF82C10490358BFB6
:1008C00080BD01EE10CA02EE103A03EE102ADEF8E7
:1008D0003010C1F30661B8EE411AB8EE422A013178
:1008E000B8EE433A81EE021A30EE030A21EE000A16
:1008F00001EE101AB8EE411A80EE010ABCEEC00AF1
:1009000080ED020A80BDDEF834109FED0D1AC1F3B0
:10091000CC0100EE101AB8EE400A20EE010A002BBE
:100920007FF47CAF80BDDEF8002049F20003C0F206
:10093000D033C2F3C10223FA02FC5CE700000000DE
:10094000000000390000000080B544F2004EC5F6FA
:10095000020EDEF8282002F00302022A0AD0012A41
:1009600010D022B9DEF80020520700F1AC804FF021
:10097000000C10E0DEF8002041F200239203C0F2E8
:100980007A0306E0DEF8002040F60013D205C0F23C
:100990003D0303EAE27C00228260C0E90022DEF827
:1009A0002830DEF83820DEF82C10C906C3F30533F2
:1009B00079D49FED4A0A002B00F084806FF35F2208
:1009C000DEF82C10090302F1010220D501EE10CA55
:1009D00002EE103A03EE102ADEF83810C1F3462179
:1009E000B8EE411AB8EE422A0131B8EE433A81EE30
:1009F000021A30EE032A21EE021A02EE101AB8EEA5
:100A0000422A81EE021ABCEEC11A80ED001ADEF80D
:100A10002C10C90220D501EE10CA02EE103A03EEE6
:100A2000102ADEF83810C1F30641B8EE411AB8EECC
:100A3000422A0131B8EE433A81EE021A30EE032A1F
:100A400021EE021A02EE101AB8EE422A81EE021AC4
:100A5000BCEEC11A80ED011ADEF82C10890258BFD5
:100A600080BD01EE10CA02EE103A03EE102ADEF845
:100A70003810C1F30661B8EE411AB8EE422A0131CE
:100A8000B8EE433A81EE021A30EE030A21EE000A74
:100A900001EE101AB8EE411A80EE010ABCEEC00A4F
:100AA00080ED020A80BDDEF83C109FED0D1AC1F307
:100AB000CC0100EE101AB8EE400A20EE010A002B1D
:100AC0007FF47CAF80BDDEF8002049F20003C0F265
:100AD000D033C2F3C10223FA02FC5CE7000000003D
:100AE000000000390000000010B544F20044C5F6D3
:100AF0000204A26A02F00302022A09D0012A0ED0DF
:100B00001AB92268520700F1A0804FF0000E0EE0E3
:100B1000226841F200239203C0F27A0305E02268C2
:100B200040F60013D205C0F23D0303EAE27E002244
:100B30008260C0E90022A36A226CE16AC905C3F39E
:100B4000055302D49FED460A0AE0616C9FED451AF9
:100B5000C1F3CC0100EE101AB8EE400A20EE010AF3
:100B6000002B18BFBEF1000F00D110BD6FF35F2244
:100B7000E16A490202F1010C1FD501EE10EA02EE12
:100B8000103A03EE10CA216CC1F34621B8EE411AA7
:100B9000B8EE422A0131B8EE433A81EE021A30EE45
:100BA000032A21EE021A02EE101AB8EE422A81EE52
:100BB000021ABCEEC11A80ED001AE16A09021FD5C3
:100BC00001EE10EA02EE103A03EE10CA216CC1F3F6
:100BD0000641B8EE411AB8EE422A0131B8EE433A66
:100BE00081EE021A30EE032A21EE021A02EE101AEA
:100BF000B8EE422A81EE021ABCEEC11A80ED011A4B
:100C0000E16AC90158BF10BD01EE10EA02EE103AC8
:100C100003EE10CA216CC1F30661B8EE411AB8EEBA
:100C2000422A0131B8EE433A81EE021A30EE030A4D
:100C300021EE000A01EE101AB8EE411A80EE010A08
:100C4000BCEEC00A80ED020A10BD226849F2000322
:100C5000C0F2D033C2F3C10223FA02FE67E700BF3D
:100C6000000000000000003940F20001C2F2004123
:100C7000086070470000000081B001304EF21001A2
:100C8000CEF2000128BF4FF0FF300A680092009AB0
:100C900030B100BF0A68D20300EBE2700028F9D13E
:100CA00001B0704700000000FEE7000000000000F7
:100CB000FEE7000000000000704700000000000098
:100CC00070470000000000007047000000000000B6
:100CD000B0B542F200000422C5F20020016862F3C0
:100CE00003010160016801F00F0104290ED00168C1
:100CF00001F00F0104291EBF016801F00F01042952
:100D000004D0016801F00F010429EBD144F60C0076
:100D10000222C5F6020044F20045C5F6020501684C
:100D200062F302010160C16841F44041C16028687A
:100D300040F4803028602868800309D42868800344
:100D40005CBF28685FEA803002D428688003F2D54F
:100D50002868022140F400202860A86A772261F305
:100D60000100A862E86A012140F48030E862E86A84
:100D700040F48020E862E86A40F00C00E862E86A2B
:100D800020F00200E862A86A61F30910A862286BEB
:100D900062F308002863286B61F34F202863286BF7
:100DA00061F316402863286B61F31E60286328688E
:100DB00040F0807028602868800109D4286880018C
:100DC0005CBF28685FEA801002D428688001F2D5F1
:100DD000A869082161F30300A8612869032161F370
:100DE00002002861286900F0380018280ED0286910
:100DF00000F0380018281EBF286900F038001828B5
:100E000004D0286900F038001828EBD1A86908211F
:100E100020F47060A861A86943F6000461F3030040
:100E2000A861E869042161F30610E861E869C1F688
:100E30009C4461F30A20E861A86961F30610A86187
:100E4000286A61F3061028622046FFF7C1FB20469E
:100E5000FFF70AFF286840F400202860B0BD0000BA
:100E60004EF6885042F2000CCEF20000C5F2002C83
:100E7000016841F470010160DCF8000000F00F002F
:100E8000062806D8DCF80000072161F30300CCF83F
:100E9000000044F200404EF67F52C5F60200CEF646
:100EA000F622016841F0010101600021016103683F
:100EB0001A400260DCF80020120706D5DCF800209A
:100EC000072363F30302CCF8002040F20022816183
:100ED000C161C0F20222016282620022C0F2FF12EE
:100EE000C26240F28022C0F2011202634163826357
:100EF000C16302644164026822F4802202600166D8
:100F000041F20000C5F600400068B1EB507F05D10A
:100F100048F208100121C5F20010016044F20000FF
:100F200043F2D201C5F200200160704700000000CA
:100F3000FEE70000000000008EB04EF60C5048F2B4
:100F40003F71CEF200000025BFF35F8FC0F88850DC
:100F5000C1F20401C0F88C5044F2E046C0F8905051
:100F6000C5F60206C0F894100521C0F888104FF6A7
:100F7000FF02BFF34F8FBFF36F8F71694FF0FF33E5
:100F800041F002017161716940F61C4401F00201F7
:100F9000079107990168114040F20032C0F2FA52FD
:100FA000C5F60004114301600168C1F3022181F01C
:100FB0000702042A28BF0422033938BF294603FA4E
:100FC00002F2D24302FA01F10901C175FFF780FE76
:100FD000306804F5F83140F080003060306800F08F
:100FE000800007900798306840F00100306030685A
:100FF00000F001000790079856F8880C20F00700D1
:1010000046F8880C706940F008007061706900F063
:10101000080007900798306840F0010030603068A1
:1010200000F00100079007984FF4C0600190022083
:10103000CDE902050320069001F5797001A9CDE9FB
:101040000455FFF75DFA4FF4E13007A9CDE9080533
:101050000C200795CDE90C05A4F11C00CDE90A553B
:10106000FFF7CAFA40F60840C5F6000050E8001F36
:1010700021F0604140E80012C2B150E8001F21F0A9
:10108000604140E80012002A1FBF50E8001F21F015
:10109000604140E80012002A08D050E8001F21F00B
:1010A000604140E80012002AE0D100BF50E8001F74
:1010B00021F0606140E80012BAB150E8001F21F051
:1010C000606140E80012002A1FBF50E8001F21F0B5
:1010D000606140E80012002A07D050E8001F21F0AC
:1010E000606140E80012002AE0D154F81C0C20F0A6
:1010F000005044F81C0C54F8140C20F4805044F8B0
:10110000140C54F8140C40F4005044F8140C54F827
:101110001C0C40F0010044F81C0C00BF2068800249
:1011200044BF20685FEA402014D42068800244BF96
:1011300020685FEA40200DD42068800244BF206808
:101140005FEA402006D42068800244BF20685FEA3E
:101150004020E3D541F2BE150020C0F6000502E0B4
:101160000130D12810D0295CE16021680906F7D44C
:10117000216809065CBF21685FEA0161F0D421683B
:101180000906F2D5ECE700BF4FF4FA70FFF774FDE3
:101190000020E8E7F1EE100A4FF6FF71C0F2C0310F
:1011A00020EA010040F04070E1EE100A70470000B4
:1011B0000000010203040102030406070809766F18
:1011C0006964204C5055415254315F5472616E73C2
:1011D0006D69742863686172206D657373616765FA
:1011E0005B5D290A7B0A696E74206D6573736167A4
:1011F000655F6C656E67683D7374726C656E286DB3
:10120000657373616765293B0A696E7420693D30B7
:101210003B0A666F7228693D303B693C6D657373AC
:101220006167655F6C656E67683B692B2B290A7B7C
:101230000A4C4C5F4C50554152545F5472616E736E
:101240006D69744461746138284C50554152543171
:101250002C6D6573736167655B695D293B0A77680F
:10126000696C6528214C4C5F4C50554152545F4984
:1012700073416374697665466C61675F54584528AD
:101280004C50554152543129293B0A7D0A7D0A00B0
:10129000B01200080000002408000000D40200087A
:1012A000B81200080800002460060000F0020008E0
:0812B0000090D0030090D00370
:040000050800029954
:00000001FF
